:100003000000000000002070F0E0E0C0000060E0AD
:10001300E3FFFFFFFCF8D000000000000000000039
:100023000000000000000018F8F8F0FCFCFCDCC045
:10003300C0E0E0E0E0E070707838F8F8F00000002D
:1000430000000000000000000030F0F0F0E00000CD
:10005300000000000000000000000000000000009D
:10006300000000000000000040E0E0E0E0E0E0709D
:10007300F0F0F0F06000000000000000000018380D
:100083003838B8F1F1F070F2FFBFFFFFFFFFFDFD5D
:10009300FCFCDC1C1C1C1C00000000000000000316
:1000A30073F7FFFFFFFBD9C91D3DF9F1FFFFFFFF09
:1000B300787060FFFFFFFF000000000000000E3EAD
:1000C300FEFCFCDCFFFFFF7F77A7E7FFFF7F060057
:1000D3000000000000000000000000000000C0C09D
:1000E300C0E0E0E0E0F8FCFCFEFF7773717070F0B5
:1000F300F0F060000000000060F0F8FE3F07010030
:1001030000FFFFFFFFDFFFEEECFFFFFFFF0000003C
:100113000000000000000E0E0E8FF7FFFF3F0701E7
:10012300010D0EEFE7C3FFFFFF1F3E1F0FFFFFFF92
:10013300FF0000000000000000000F1F1F1DFFFF55
:10014300FF8E07070F0F0F00000000E0F0F08000A4
:10015300000000000000000000010101000080C059
:1001630080FFFFFF0000000000000000000000000F
:1001730000000000000000000000030F1F1F01012A
:1001830001103870FFFF7F00000000000000000036
:10019300101C1E1F0F0301000000000000000103DC
:1001A3000303030002070F1F1F3F1F00000000008F
:1001B3000000000000000000000303070707070713
:1001C30007070707070707070700000000000000ED
:1001D3000000000000000000010307070701000002
:1001E30000000000000000001060028C0044545422
:1001F300547F54545444400004047E010000FF150E
:10020300151555957F00000008494EF84C4B081210
:1002130022FE001222FE00008242320F020202443A
:10022300827F0442817F00000000F888888888FF6D
:1002330088888888F800000000001F080808087FE5
:10024300888888889F80F00080828282828282E20E
:10025300A2928A8682808000000000000040807F96
:1002630000000000000000002424A4FEA3220022BA
:10027300CC0000FF00000000080601FF0001040499
:10028300040404FF02020200101010FF10900888FB
:100293008888FF88888808000444827F0180804022
:1002A300432C1028468180001060028C0084E41CDB
:1002B30005C6BC2424E4040004047E010000FF827C
:1002C3004126182946818000000000007F494949E2
:1002D30049497F000000000000FF49494949FF00E8
:1002E300FF49494949FF00001060028C00FE02F2F9
:1002F30002FE00F800FF000004047E018047300F77
:1003030010270047807F0000404042CC009090902F
:100313009090FF10111610000000003F1028603F5E
:100323001010010E3040F000000000FE000000003D
:100333000000000000000000000000330000000087
:080343000000000000000000B2
:1007AD007FAF120838C286D286E50824B8FF12083A
:1007BD0038C2867F017E001207E4D286AF0212088E
:1007CD0038C2867F017E001207E4D2867FC01208F0
:0707DD0038C2867F017E0097
:1007E400D3EF9400EE940040147D647C00ED1D7002
:0D07F400011CED4C70F7EF1F70E61E80E356
:0108010022D4
:10082600D285E4FF120838C2850FFE1207E4D2858E
:020836007FC081
:07083800C287C2848FA022D9
:1008020075F020E509A42DF582E5F03CF583E5823B
:0D08120024EBF582E5833401F583E493FFC8
:07081F00D287C2848FA022E2
:1006C2007FAF120838C286C285D286120834C2862B
:1006D200C285D286D2857FB8120838C286C285D238
:1006E20086D2857F4F120838C286C285D286D285CD
:1006F2007FA0120838C286C285D286D2857FA41214
:100702000838C286C285D286D2857FA9120838C22D
:1007120086C285D286D2857FE0120838C286C2851B
:10072200D286D2857FEE120838C286C285D286D2A0
:0F073200857FE2120838C286C285D286D2852220
:04054B008E088F097E
:10054F00E4F50AF50BF50CF50DFBFA79B87FAF1250
:10055F000838C2867F01FE1207E4D286AF01120768
:10056F00DBD286E4FF120838C2860FFE1207D4D200
:10057F0086E4F50AF50B7C007D7AAF03AE02120814
:10058F003FE50B2FFFE50A3EFEE5092FF582E50853
:10059F003E12081AC286D286050BE50B7002050AB9
:1005AF00C3943DE50A940040CD090BBB00010AEB53
:1005BF0064044A70A779B87FAF120838C285120752
:1005CF00E0D285E4FAFBAF01120838C2851207E0CA
:1005DF00120826C2851207E0D285E4F50AF50B7CD6
:1005EF00007D7AAF03AE0212083FE50B243DCDE448
:1005FF00350ACD2FFFED3EFEE5092FF582E5083ECA
:10060F0012081AC285D285050BE50B7002050AC3C5
:10061F00943DE50A940040C7090BBB00010AEB6447
:04062F00044A70A267
:0106330022A4
:03034B000BE4FDC3
:06034E008D088B09AA07CF
:10035400E4FDFCEAC3942E50511207ADD286E4FCAE
:10036400FD120802C286D2860DBD00010CED641098
:100374004C70EEE50824B91207BAD286E4FCFD7588
:10038400F020E509A42DF582E5F03CF583E582240F
:10039400FBF582E583340112081AC286D2860DBDAC
:1003A40000010CED64104C70D622EAD3943C500347
:1003B40002044D7FAF120838C285D285E50824B8FF
:1003C400FF120838C2851207E0D285EA24C3FF125F
:1003D4000838C2851207E0120834C2851207E0D239
:1003E40085E4FCFD120802C285D2850DBD00010C16
:1003F400ED64104C70EEE50824B9FF120838C2858C
:100404001207E0D285EA24C3FF120838C285120716
:10041400E0120834C2851207E0D285E4FCFD75F0D1
:1004240020E509A42DF582E5F03CF583E58224FB63
:10043400F582E583340112081AC285D2850DBD0008
:10044400010CED64104C70D6221207ADD286E4FC88
:10045400FDEAFFC3743D9FFFE49400FEC3ED9FECEF
:100464009E500E120802C286D2860DBD00010C8079
:10047400E0E50824B91207BAD286E4FCFDEAFFC31A
:10048400743D9FFFE49400FEC3ED9FEC9E502675DF
:10049400F020E509A42DF582E5F03CF583E58224FE
:1004A400FBF582E583340112081AC286D2860DBD9B
:1004B40000010C80C87FAF120838C285D285E508D8
:1004C40024B8FF120838C2851207E0120826C28534
:1004D4001207E0D285EAFFC3743D9FFDE49400FC5B
:1004E400C3ED9410EC9400500E120802C285D2851C
:1004F4000DBD00010C80E9E50824B9FF120838C2DB
:10050400851207E0120826C2851207E0D285C3745B
:100514003D9AFDE49400FCC3ED9410EC9400502645
:1005240075F020E509A42DF582E5F03CF583E5821C
:1005340024FBF582E583340112081AC285D2850DA5
:06054400BD00010C80D196
:01054A00228E
:10074100E4FDFCFBFAEB24B8FF1207DBD286E4FFE1
:10075100120838C2860FFE1207D4D286E4FCFDE4EB
:10076100FF12081FC286D2860DBD00010CED643D4B
:100771004C70ECEB24B8FF120838C2851207E01266
:100781000826C2851207E0D285E4FCFDE4FF1208C9
:100791001FC285D2850DBD00010CED643D4C70EC8E
:0B07A1000BBB00010AEB64044A709AD5
:0107AC00222A
:10063400C2837F0A7E001207E4D2837F027E001207
:1006440007E41206C2120741120741E4FBFD7F0FC3
:1006540012034E7F1E12034B7F2D12034B0BE4FD3E
:100664007F3C12034E0BE4FD7F4B12034E0BE4FD63
:100674007F5A12034E0B7D027F2B12034E0B7D0219
:100684007F3A12034E0B7D027F4912034E0B7D020B
:100694007F5812034E0B7D027F6712034E7F887EC4
:1006A400131207E47E007F0312054B7F407E1F1266
:0E06B40007E41207417F647E001207E4808D88
:03000000020851A2
:0C085100787FE4F6D8FD75810D020634B6
:10083F00EF8DF0A4A8F0CF8CF0A428CE8DF0A42ECD
:02084F00FE2287
:00000001FF
