:030000000201BC3E
:0C01BC00787FE4F6D8FD7581110201AFD8
:10018F00AD071FED600BE4FEEEC3940D50F20E8031
:01019F00F768
:0101A000223C
:10015D00EF1FAA0670011E4A600FE4FDEDC394FA6D
:09016D0050EE000000000D80F3CB
:010176002266
:0D01A1007F587E1FEF1F70011EEF4E70F79C
:0101AE00222E
:10017700D2AFD2ACD2AB758920E4F58775985075AC
:080187008DFD758BFDD28E2267
:0D01AF00D2B212017775A88143880180FE4D
:03000300020006F2
:0B000600C0E0C083C082C0D075D000F5
:10001100751000751100C2A87F0F12018F30B20553
:10002100D2A802012E20B2077F0112018F80F6E4CF
:10003100FC750F0030B2077F0112018F80F620B2EC
:10004100077F0112018F80F630B2137F0112018FF9
:100051000510E510C3941E40EFD2A802012E7408CA
:100061002CF8C000E6FFC313D000F6E510C39408D6
:10007100400874082CF8E64480F6751000050FE579
:100081000FC3940840AE0CEC640470A5E50BF46555
:100091000A6005D2A802012EE50A540FF50DE50A02
:1000A100C4540FF50EE50DD3940940047437800252
:1000B1007430250DF50DE50ED39409400474378095
:1000C100027430250EF50EE50E540FC454F0FFE511
:1000D1000D540F2FF5111201370101030110080111
:1000E100151300FC16010618012941011F42011ACE
:1000F10051012452010B550000012C759900802BF0
:1001010075990180267599028021759903801C7566
:10011100990480177599058012759906800D759956
:0D0121000780087599088003759909D2A818
:09012E00D0D0D082D083D0E032A1
:10013700D083D082F8E4937012740193700DA3A357
:1001470093F8740193F5828883E47374029368606B
:06015700EFA3A3A380DF6B
:00000001FF
