:0A00D800C0F9A4B0999282F880905C
:0D00BE00EFD3940040077E7DDEFE1F80F32F
:0100CB002212
:10000E00E50975F00A849000D893F580C2A07F05AB
:10001E001200BED2A0E50975F00A84E5F093547F74
:10002E00F580C2A17F051200BED2A1E50875F00AC7
:10003E008493F580C2A27F051200BED2A2E5087598
:10004E00F00A84E5F093F580C2A37F051200BED2BC
:02005E00A322DB
:10009D00758902758C06758A06D28CD2A9D2AF7D70
:1000AD00647C0012000EED1D70011CED4C70F4808F
:0100BD00EE54
:03000B0002006090
:10006000C0E0C0D0050BE50B7002050AB4A029E57D
:100070000AB40F24750A00750B000508E508B43CA6
:10008000177508000509E509B43C0D750900050C54
:0D009000E50CB41803750C00D0D0D0E032A0
:030000000200CC2F
:0C00CC00787FE4F6D8FD75810D02009DE0
:00000001FF
