:10056E0002260000022400000128000429000000D9
:10057E0000C1000C2DC0F9A4B0999282F88090BFF2
:0C058E00FF0321FEFDFB0439000000000B
:10053900E528701074392528F8E6242DF8E6547F4B
:10054900F580800C74392528F8E6242DF8E6F58025
:1005590074212528F8E6F5A00528E528C394034069
:0505690003E4F5282267
:10037000AF8CEFFEAD8A7C00E42DF527EC3EF52630
:10038000E4F58CF58AAC26AD271201C97B9A7A99DF
:1003900079D9783F12001EE4FBFA79C8784212013D
:1003A000271202028F2C8E2B8D2A8C29E47FBC7E93
:1003B00002FDFCAB2CAA2BA92AA829C312035F506B
:1003C0000330000CC20075390A753A0A753B0A22DF
:1003D000E47BE87A03F9F8AF2CAE2BAD2AAC2912F6
:1003E00002BFAC00AD01AE02AF03E47B64FAF9F8E2
:1003F0001202BF8F39E47BE87A03F9F8AF2CAE2BF9
:10040000AD2AAC291202BFAC00AD01AE02AF03E4CD
:100410007B64FAF9F81202BFAC00AD01AE02AF0383
:10042000E47B0AFAF9F81202BF8F3AE47BE87A0318
:10043000F9F8AF2CAE2BAD2AAC291202BFAC00AD3F
:1004400001AE02AF03E47B0AFAF9F81202BFAC0076
:10045000AD01AE02AF03E47B0AFAF9F81202BFAFB6
:04046000038F3B22A9
:03000B00020003ED
:03000300D20032F6
:03001B000204F0EC
:1004F000C0E0C0D075D000C000758DF8758B30128B
:1005000005390525E52570020524C39490E524945A
:1005100001401F752400752500D2920000000000E4
:1005200000000000000000000000000000000000CB
:09053000C292D000D0D0D0E0321C
:10059B00758911E4F58CF58A758DF8758B30D2A9B8
:1005AB00D2ABD28ED2AF3091FDD28C2091FDC28CCA
:0505BB0012037080F145
:10001E00EC4D6011E8497017ED33EC3304600DE4DC
:10002E00FCFFFEFD22E933E8330470F802026E1283
:10003E00023958046009E4CC248150062850090284
:10004E000278284003020275C0E0EB4A7044B98082
:10005E0006D0E0FB020264EF4E701CBD8008EBFF81
:10006E00EAFEE9FD80EBE98DF0A4FEE5F002010762
:10007E00E9CDF9EAFEEBFFEF89F0A4FCE5F0CE89BD
:10008E00F0A42EFFE435F0CD89F0A42DFEE435F07A
:10009E008067EF4E7005BD80D780C3EF8BF0A4ACA8
:1000AE00F0EE8BF0A42CFCE435F0F8EF8AF0A42CE3
:1000BE00E5F038FCE433CB8DF0A42CFCE5F03BF8F6
:1000CE00EE8AF0A42CFCE5F038F8E433CF89F0A4E6
:1000DE002CFCE5F038CF3400CE89F0A42FFFE5F0EC
:1000EE003EFEE433C98DF0A42EFEE5F039CD8AF044
:1000FE00A42FFFE5F03EFEE43DFD33D0E0FB5007BC
:10010E000BBB000F020278EC2CFCEF33FFEE33FE3C
:06011E00ED33FD0202506A
:10012400020278EC5D046005E85904700302026E73
:10013400120239580460F6EC4860F2EC7004FDFEDB
:10014400FF22C860DB2481C85009C39860025006AE
:100154000202759850CAF582E9294B4A7005AB82B0
:1001640002026475F0007C1A7880C3EF9BEE9AED6E
:1001740099400DC3EF9BFFEE9AFEED99FDE842F026
:10018400DC23ACF0D0E0FFD0E0FED0E0FDAB822079
:10019400E7101BEB60BAEC2CFCEF33FFEE33FEED03
:1001A40033FD020250E803F830E705C0F075F000B3
:1001B400EF2FFFEE33FEED33FD40B830E7C280AAE7
:1001C40075F020800E75F010800575F0087D007EB6
:1001D400007F003392D530D503120351EC33401025
:1001E400EF33FFEE33FEED33FDEC33FCD5F0ED22BF
:0E01F400E5F0247EA2D513CC92E7CDCEFF22FB
:10020200EDD2E7CD33EC3392D524814006E4FFFEF4
:10021200FDFC22FCE4CFCECDCC24E0501174FF8053
:10022200EDC3CC13CCCD13CDCE13CECF13CF0470F0
:07023200F030D5DE0203519C
:10023900E9D2E7C933E833F892D5EDD2E7CD33EC0B
:0702490033FC5002B2D52284
:10025000EC30E7100FBF000C0EBE00080DBD00040F
:100260000BEB6014A2D5EB13FCED92E7FD2274FFBB
:10027000FCFDFEFF22E480F8A2D574FF13FC7D8014
:03028000E480EF28
:0300000002046493
:0C046400787FE4F6D8FD75813C0204AB03
:1002830075F008758200EF2FFFEE33FECD33CDCC32
:1002930033CCC58233C5829BED9AEC99E5829840B5
:1002A3000CF582EE9BFEED9AFDEC99FC0FD5F0D692
:1002B300E4CEFBE4CDFAE4CCF9A88222B800C1B9BC
:1002C3000059BA002DEC8BF084CFCECDFCE5F0CBFA
:1002D300F97818EF2FFFEE33FEED33FDEC33FCEB33
:1002E30033FB10D703994004EB99FB0FD8E5E4F9EE
:1002F300FA227818EF2FFFEE33FEED33FDEC33FCDB
:10030300C933C910D7059BE99A4007EC9BFCE99ACE
:10031300F90FD8E0E4C9FAE4CCFB2275F010EF2F13
:10032300FFEE33FEED33FDCC33CCC833C810D70713
:100333009BEC9AE899400AED9BFDEC9AFCE899F84E
:0E0343000FD5F0DAE4CDFBE4CCFAE4C8F922E1
:0E035100C3E49FFFE49EFEE49DFDE49CFC22BD
:10035F00EB9FF5F0EA9E42F0E99D42F0E89C45F0F4
:01036F00226B
:1004700002059BE493A3F8E493A34003F68001F202
:1004800008DFF48029E493A3F85407240CC8C3338D
:10049000C4540F4420C8834004F456800146F6DF5C
:1004A000E4800B010204081020408090056EE47E79
:1004B000019360BCA3FF543F30E509541FFEE49351
:1004C000A360010ECF54C025E060A840B8E493A318
:1004D000FAE493A3F8E493A3C8C582C8CAC583CA43
:1004E000F0A3C8C582C8CAC583CADFE9DEE780BEFB
:01059A000060
:00000001FF
