:03000000020026D5
:0C002600787FE4F6D8FD75813B02006D88
:0A027B0001180005295253323332F6
:06023C007B007A00792925
:100242001201B8F5379000011201D1F53890000281
:100252001201D1F5399000031201D1F53A90000450
:0C0262001201D1F53B752201853799226D
:10000300D3EF9400EE9400400DE4FD0DBD1BFCEF17
:060013001F70ED1E80EAE3
:0100190022C4
:0C026E00150A150A150A150A150A150ACA
:01027A002261
:10017000E4FF752102C2A1D2A120B707AE2105215B
:10018000EE70F612026E12026EE4F52630B70375B9
:10019000260175210230B707AE210521EE70F6C2A7
:1001A000A1D2A1E5216401600EE53125E0F531E53C
:0701B0002642310FBF08BB1E
:0101B7002225
:1000B200C2B77FB47E00120003D2B712026E1202E0
:1000C2006E12026E12026ED2B720B756752102204E
:1000D200B707AF210521EF70F675210230B707AFE0
:1000E200210521EF70F612017085312E1201708503
:1000F200312F12017085311B12017085311C1201E2
:1001020070853125D2B7E51B251C252E252FF52616
:10011200B5250F852E27852F28851B19851C1A8545
:0301220025232270
:1001FE00758920758DFD758BFDD28E759850D2AC9C
:10020E00D2AFC299C29812023C7F017E0012000347
:10021E001200B285272985282A85192B851A2C8547
:0E022E00232D12023C7F207E4E12000380E240
:03002300020125B2
:07012500C0E0C0D075D0104E
:10012C00309912C299E5226405600A74372522F8C9
:10013C00E6F5990522309827AF9974322518F8A660
:10014C00170518C298E518B40515751800853229DD
:0F015C0085332A85342B85352C85362D7580000B
:05016B00D0D0D0E0320D
:100032000201FEE493A3F8E493A34003F68001F2E5
:1000420008DFF48029E493A3F85407240CC8C333CF
:10005200C4540F4420C8834004F456800146F6DF9E
:10006200E4800B010204081020408090027BE47EB1
:10007200019360BCA3FF543F30E509541FFEE49393
:10008200A360010ECF54C025E060A840B8E493A35A
:10009200FAE493A3F8E493A3C8C582C8CAC583CA85
:1000A200F0A3C8C582C8CAC583CADFE9DEE780BE3D
:010285000078
:1001B800BB010689828A83E0225002E722BBFE0245
:0901C800E32289828A83E4932278
:1001D100BB010CE58229F582E5833AF583E02250E3
:1001E10006E92582F8E622BBFE06E92582F8E2222D
:0D01F100E58229F582E5833AF583E4932247
:00000001FF
