:0300140001087F61
:1000AA007590FF758921758CFC758A6685088DE4C3
:1000BA00F58BD2AFD2A9D2ABD28CE508F460090590
:1000CA00087F0A12010980031200EF30B4ECE50838
:1000DA006402600915087F0A12010980031200EF01
:0500EA0030B5EB80D5EC
:03000B0002011BD4
:10011B00C28E758CFC758A6685088DD28E759000A3
:01012B0032A1
:03001B0002000ED2
:06000E00C28E7590FF3266
:1000EF00E4F5097F64120003B2B60509E509C3946C
:0A00FF006440F0D2B67F64020109EC
:07000300AE071FEE70FA22A8
:10010900AD071FED600BE4FEEEC3947850F20E804C
:01011900F7EE
:01011A0022C2
:0300000002001EDD
:0C001E00787FE4F6D8FD758109020065CA
:10002A000200AAE493A3F8E493A34003F68001F242
:10003A0008DFF48029E493A3F85407240CC8C333D7
:10004A00C4540F4420C8834004F456800146F6DFA6
:10005A00E4800B0102040810204080900014E47E22
:10006A00019360BCA3FF543F30E509541FFEE4939B
:10007A00A360010ECF54C025E060A840B8E493A362
:10008A00FAE493A3F8E493A3C8C582C8CAC583CA8D
:10009A00F0A3C8C582C8CAC583CADFE9DEE780BE45
:0100170000E8
:00000001FF
