:03000000020003F8
:0C000300787FE4F6D8FD75810A02004AFF
:0A014400C0F9A4B0999282F88090EF
:04014E0002090000A2
:1000C600D3EF9400EE940040147D787C00ED1D7013
:0D00D600011CED4C70F7EF1F70E61E80E37B
:0100E30022FA
:10011B00EF24D0540F90014493F580C2A07F017E51
:06012B00001200C6D2A084
:0101310022AB
:10013200120101AF9912011B3098F8C29812008F78
:0201420080F14A
:10010100C2AC759850758920758BFD758DFD53872F
:0A0111007FD28EC299C298D2AC22B0
:1000E400C2998F993099FDC299E50A30E004D297FC
:0D00F4008002C297050AE50A700205092284
:10008F00E50824CE60111460121460151460182452
:10009F00047018D290801AD2918016C290C29180AB
:1000AF0010D290D291800AC2928006D290D291D271
:0700BF0092AF081200E422D9
:10000F00020132E493A3F8E493A34003F68001F2D4
:10001F0008DFF48029E493A3F85407240CC8C333F2
:10002F00C4540F4420C8834004F456800146F6DFC1
:10003F00E4800B010204081020408090014EE47E02
:10004F00019360BCA3FF543F30E509541FFEE493B6
:10005F00A360010ECF54C025E060A840B8E493A37D
:10006F00FAE493A3F8E493A3C8C582C8CAC583CAA8
:10007F00F0A3C8C582C8CAC583CADFE9DEE780BE60
:0101520000AC
:00000001FF
