:10020A00202020323031342D342D3031002020206E
:0A021A002030303A30303A30300026
:1001B500C2858FA07F057E001201C6D2857F057E90
:0101C5000039
:1001C600D3EF9400EE940040147D6E7C00ED1D701C
:0D01D600011CED4C70F7EF1F70E61E80E37A
:0101E30022F9
:09022400AD087F0A1201E87FCA4F
:08022D00C2871201B5C285224F
:08000300D2871201B5C285226B
:10015F00C286C2857F3812022D7F0C12022D7F06B8
:10016F0012022D7F0112022D7F8012022DE4FBEB74
:10017F0090020A93FF1200031201C20BBB0FF07F14
:10018F00C012022DE4FBEB90021793FF1200031233
:10019F0001C20BBB0CF0758901758C3C758AB0D20E
:0501AF00AFD2A9D28CC3
:0101B4002228
:0401E400AD0A7F07DA
:1001E800ED75F00A84FBED75F00A84AAF0EF24C0DF
:1001F800FF12022DEB2430FF120003EA2430FF0225
:020208000003F1
:10000E0020B23F1201C220B216050C30B2FDE50C33
:10001E00B4010CC28C7FCA12022D7F0F12022DE585
:10002E000CB402057FC712022DE50CB403057FC484
:10003E0012022DE50CB4040AE4F50C7F0C12022D0D
:10004E00D28CE50C70030200F720B34D1201C220D2
:10005E00B34730B3FDE50CB4010D0508E508B43C1B
:10006E0003E4F508120224E50CB40212050AE50AAF
:10007E00B43C03E4F50A1201E47FC712022DE50C2D
:10008E00B40316050BE50BB41803E4F50BAD0B7FAB
:10009E00041201E87FC412022D20B44D1201C220B9
:1000AE00B44730B4FDE50CB4010D1508E508B4FFF6
:1000BE000375083B120224E50CB40212150AE50A78
:1000CE00B4FF03750A3B1201E47FC712022DE50C43
:1000DE00B40316150BE50BB4FF03750B17AD0B7FB1
:0A00EE00041201E87FC412022D2263
:0802410012015F12000E80FBA8
:03000B000200F8F8
:1000F800C0E0C0F0C0D075D000C002C003C004C0CA
:1001080005C006C007758C3C758AB00509E5096409
:10011800127031F5090508E508643C7020F50805FA
:100128000AE50AB43C14750A00050BE50BB418037C
:10013800750B00AD0B7F041201E81201E4AD087FD6
:100148000A1201E8D007D006D005D004D003D002A7
:07015800D0D0D0F0D0E0325E
:03000000020235C4
:0C023500787FE4F6D8FD75810C020241D0
:00000001FF
