:10000E0030313233343536373839203A2E2D00B36D
:10001E00ACC9F9B2A8B2E2BEE0CFB5CDB300C7E528
:10002E00CFE8B5E7D7D3BFC6BCBC2020004D00003B
:10003E0000000000000000000000000000000000B2
:10004E0000000000000000000000000000000000A2
:10005E000000000000000000000000000000000092
:10006E000000C00000000000006000000000000062
:10007E000000E000000C0000407000000080000056
:10008E000000E000001E0000607000000FE00000A5
:10009E000001C000603C0000E060001FFFE00000B7
:1000AE000003800070704000E07E001FE0C0000082
:1000BE000003000073C3F001C3FC0038E1C0000070
:1000CE0003C63C00339FF0038FC00030C1C0000058
:1000DE003FEFFE00031CE00701CC0031F180000071
:1000EE0079DFBC000618C00E01FE0077F980000013
:1000FE0001B03001C619C01E7FDE006F8380000084
:10010E0023AC600FE6F1803E7B3800618300000077
:10011E00370E000FC7B780EC633000E3030000001A
:10012E003E0E00018F3701CC6FF000C7F7000000C4
:10013E001E0C00031E66030C7F0001FFE60000008C
:10014E001E1C00031C600219AC0001960600000084
:10015E003E3E000318600019FC0003860E000000EE
:10016E007E36000300C00038780003060C00000045
:10017E00E667000300C000307800060C0C0000019A
:10018E00C6C3807FF0C00030FE000E0C1C000003C2
:10019E008183C078FF800061CF801C0818000006A4
:1001AE000703E0001FFFE06707E03818F8000008BB
:1001BE000E01F80007FF80CE03F86000700000000B
:1001CE001801F80001FC00C001FCC0007000000026
:1001DE0000000000000000000000000060000000B1
:1001EE000000000000000000000000000000000001
:1001FE0000000000000000000000000000000000F1
:10020E0000000000001000000000000000000000D0
:10021E0000060000001C00000000000000000000AE
:10022E0000070000001C000000000000000000009D
:10023E0000060000000CE00001E0000000000000DD
:10024E00000E0000003FE000FFF0003800E000006C
:10025E00000C00000FFF8000F8F0003800E00000F6
:10026E00000CF0000FC7000060E0003800E0000056
:10027E00001FF000018E000060C0007001C0000081
:10028E0007FF8000018C0000E180007001C00000BB
:10029E0007F8000001980000DFC0007001C00000E8
:1002AE000078000001BFE000FF0000600180000048
:1002BE0000FC00007FFFE000C00000E003800000B3
:1002CE0001FE00007FF80000000000C003000000E7
:1002DE0003B7000060000000003C00C003000000F7
:1002EE0007670000600000039FFE00800200000010
:1002FE000E638000E00001FFCF1E018006000000AB
:10030E001CE1E000C00000E39C3801800600000004
:10031E0038C1F801C00000C3183000000000000012
:10032E00E0FCFE03800001C7186000000000000121
:10033E00DFF8FE030000018E1BE007001C00000723
:10034E0007800007000001FF3FE007001C00000CC3
:10035E000380000E000001F038000F003C0000008A
:10036E000300001C00000100200006001800000021
:10037E000300003800000000000000000000000034
:10038E00030000E00000000000000000000000007C
:10039E00020001C00000000000000000000000008C
:1003AE00000000000000000000000000000000003F
:1003BE00000000000000000000000000000000002F
:1003CE00000000000000000000000000000000001F
:1003DE00000000000000000000000000000000000F
:1003EE0000000000000000000000000000000000FF
:1003FE0000000000000000000000000000000000EF
:10040E0000000000000000000000000000000000DE
:10041E0000000000000000000000000000000000CE
:0F042E00000000000000000000000000000000BF
:100BF30002130000041500000000C10004190000E6
:020C03000000EF
:100B5600C2847F0A7E00120B79D287C201750F30DC
:100B6600120A07C201750F0C120A07C201750F019E
:030B7600020A0769
:0A09FD0014F5828E831206BBF50F7D
:100A07002001057510F880037510FAE50F54F0F50D
:100A170011E50FC454F0F512AF10120BCD7F057E10
:100A270000120B79AF11120BCD7F017E00120B79EB
:0C0A3700AF12120BCD7F017E00020B7984
:100BCD00E4FEEF339286D285C285EF25E0FF0EBE9F
:020BDD0008F01E
:010BDF0022F3
:100B7900E4FDFCC3ED9FEC9E5015E4FBFA0BBB00B2
:0F0B8900010AEB640A4A70F50DBD00010C80E40F
:010B9800223A
:0608DD008B088A09890A5C
:1008E300E4F50DF50EC201750F36120A07E4F50B98
:1008F300C201E50B2480F50F120A07C201750F80B0
:10090300120A07E4F50CD201AB08AA09A90A050EDD
:10091300E50EAE0D7002050D1209FD050CE50CC3C5
:10092300941040E2050BE50BC3942040C3E4F50BA0
:10093300C201E50B2480F50F120A07C201750F8867
:10094300120A07E4F50CD201AB08AA09A90A050E9D
:10095300E50EAE0D7002050D1209FD050CE50CC385
:0D096300941040E2050BE50BC3942040C347
:010970002264
:08000300C201750F01020A079A
:100AC600EF14600D14600C1460101460142404708C
:100AD600178015ED2490F50B8013ED2488F50B8017
:100AE6000CED2498F50B8005ED2480F50BC20185ED
:050AF6000B0F020A07CE
:100AFB008B088A09890A120AC6AB08AA09A90A1225
:100B0B0006A2FF601BD201F50F120A077401250A1A
:100B1B00F50AE43509F5097F017E00120B7980D9BE
:010B2B0022A7
:100BE000D201EF90000E93F50F120A077F017E00ED
:030BF000020B797C
:100B2C001200037BFF7A00792CE4FD7F01120AFB93
:100B3C007BFF7A00791DE4FD7F02120AFB7BFF7AB2
:0A0B4C0000793B7D077F03020AFBDE
:1007C400AF8CEFFEAD8A7C00E42DF514EC3EF513FE
:1007D400E4F58CF58AAC13AD141205E87B297A5C38
:1007E40079EF783F12043DE4FBFA79C878421205A8
:1007F400461206218F188E178D168C15300024C2D0
:10080400007D047F03120AC67F0D120BE07F0C12D9
:100814000BE07D057F03120AC67F0D120BE07F0DEE
:100824000208D9E47BE87A03F9F8AF18AE17AD16DD
:10083400AC15120A43AC00AD01AE02AF03E47B6415
:10084400FAF9F8120A438F1AE47BE87A03F9F8AF4D
:1008540018AE17AD16AC15120A43AC00AD01AE02CA
:10086400AF03E47B64FAF9F8120A43AC00AD01AEBD
:1008740002AF03E47B0AFAF9F8120A438F1BE47B04
:10088400E87A03F9F8AF18AE17AD16AC15120A439F
:10089400AC00AD01AE02AF03E47B0AFAF9F8120A28
:1008A40043AC00AD01AE02AF03E47B0AFAF9F812DF
:1008B4000A43AF038F1C7D047F03120AC6AF1A12CA
:1008C4000BE07F0C120BE07D057F03120AC6AF1B01
:0908D400120BE0AF1C120BE02234
:100B99007C64EF4E60131CEC60087D0A1DED60F665
:090BA90080FAEF1F70EC1E80E9D8
:010BB2002220
:03000B00020C06DE
:030C0600D20032E7
:100BB300D2920000000000000000000000000000CE
:0A0BC30000000000000000C29222B2
:100A8700758901E4F58CF58AD28C120B5612000396
:100A97007BFF7A00793D1208DD7F107E27120B79E4
:100AA700120B56120B2C120BB33091FDD28C2091E6
:0F0AB700FDC28C1207C47F507E00120B9980E79E
:10043D00EC4D6011E8497017ED33EC3304600DE4B9
:10044D00FCFFFEFD22E933E8330470F802068D123D
:10045D00065858046009E4CC24815006285009023E
:10046D000697284003020694C0E0EB4A7044B98019
:10047D0006D0E0FB020683EF4E701CBD8008EBFF3B
:10048D00EAFEE9FD80EBE98DF0A4FEE5F00205261C
:10049D00E9CDF9EAFEEBFFEF89F0A4FCE5F0CE899A
:1004AD00F0A42EFFE435F0CD89F0A42DFEE435F057
:1004BD008067EF4E7005BD80D780C3EF8BF0A4AC85
:1004CD00F0EE8BF0A42CFCE435F0F8EF8AF0A42CC0
:1004DD00E5F038FCE433CB8DF0A42CFCE5F03BF8D3
:1004ED00EE8AF0A42CFCE5F038F8E433CF89F0A4C3
:1004FD002CFCE5F038CF3400CE89F0A42FFFE5F0C9
:10050D003EFEE433C98DF0A42EFEE5F039CD8AF020
:10051D00A42FFFE5F03EFEE43DFD33D0E0FB500798
:10052D000BBB000F020697EC2CFCEF33FFEE33FEF6
:06053D00ED33FD02066F24
:10054300020697EC5D046005E85904700302068D0A
:10055300120658580460F6EC4860F2EC7004FDFE95
:10056300FF22C860DB2481C85009C398600250068B
:100573000206949850CAF582E9294B4A7005AB826A
:1005830002068375F0007C1A7880C3EF9BEE9AED28
:1005930099400DC3EF9BFFEE9AFEED99FDE842F003
:1005A300DC23ACF0D0E0FFD0E0FED0E0FDAB822056
:1005B300E7101BEB60BAEC2CFCEF33FFEE33FEEDE0
:1005C30033FD02066FE803F830E705C0F075F0006D
:1005D300EF2FFFEE33FEED33FD40B830E7C280AAC4
:1005E30075F020800E75F010800575F0087D007E93
:1005F300007F003392D530D5031206E8EC33401068
:10060300EF33FFEE33FEED33FDEC33FCD5F0ED229B
:0E061300E5F0247EA2D513CC92E7CDCEFF22D7
:10062100EDD2E7CD33EC3392D524814006E4FFFED1
:10063100FDFC22FCE4CFCECDCC24E0501174FF8030
:10064100EDC3CC13CCCD13CDCE13CECF13CF0470CD
:07065100F030D5DE0206E8DF
:10065800E9D2E7C933E833F892D5EDD2E7CD33ECE8
:0706680033FC5002B2D52261
:10066F00EC30E7100FBF000C0EBE00080DBD0004EC
:10067F000BEB6014A2D5EB13FCED92E7FD2274FF98
:10068F00FCFDFEFF22E480F8A2D574FF13FC7D80F1
:03069F00E480EF05
:0300000002097181
:0C097100787FE4F6D8FD7581200209B8FB
:1006A200BB010689828A83E0225002E722BBFE0256
:0906B200E32289828A83E4932289
:1006BB00BB010CE58229F582E5833AF583E02250F4
:1006CB0006E92582F8E622BBFE06E92582F8E2223E
:0D06DB00E58229F582E5833AF583E4932258
:100A4300C2D5E830E70FB2D5E4C39BFBE49AFAE4DE
:100A530099F9E498F8EC30E717B2D5120A7912073E
:100A630032E4C39BFBE49AFAE499F9E498F880032F
:100A730012073230D50DE4C39FFFE49EFEE49DFDD3
:040A8300E49CFC22D1
:0E06E800C3E49FFFE49EFEE49DFDE49CFC2223
:10097D00020A87E493A3F8E493A34003F68001F2FF
:10098D0008DFF48029E493A3F85407240CC8C3337B
:10099D00C4540F4420C8834004F456800146F6DF4A
:1009AD00E4800B0102040810204080900BF3E47EDC
:1009BD00019360BCA3FF543F30E509541FFEE4933F
:1009CD00A360010ECF54C025E060A840B8E493A306
:1009DD00FAE493A3F8E493A3C8C582C8CAC583CA31
:1009ED00F0A3C8C582C8CAC583CADFE9DEE780BEE9
:010C050000EE
:1006F60075F008758200EF2FFFEE33FECD33CDCCBB
:1007060033CCC58233C5829BED9AEC99E58298403D
:100716000CF582EE9BFEED9AFDEC99FC0FD5F0D61A
:10072600E4CEFBE4CDFAE4CCF9A88222B800C1B944
:100736000059BA002DEC8BF084CFCECDFCE5F0CB82
:10074600F97818EF2FFFEE33FEED33FDEC33FCEBBB
:1007560033FB10D703994004EB99FB0FD8E5E4F976
:10076600FA227818EF2FFFEE33FEED33FDEC33FC63
:10077600C933C910D7059BE99A4007EC9BFCE99A57
:10078600F90FD8E0E4C9FAE4CCFB2275F010EF2F9C
:10079600FFEE33FEED33FDCC33CCC833C810D7079C
:1007A6009BEC9AE899400AED9BFDEC9AFCE899F8D7
:0E07B6000FD5F0DAE4CDFBE4CCFAE4C8F9226A
:00000001FF
