:030000000201D921
:0C01D900787FE4F6D8FD75811502014125
:0A01E500C0F9A4B0999282F880904E
:10014100D2B275A88143880175100075116412013E
:10015100B9E511151170021510D3E5119400E510E0
:06016100940050EA80E268
:03000300020006F2
:0D000600C0E0C0F0C083C082C0D075D00043
:10001300751400751500C2A87F0F1201A730B20531
:10002300D2A802013620B2077F011201A780F6751C
:10003300120075130030B2077F011201A780F6206A
:10004300B2077F011201A780F630B2137F011201BC
:10005300A70514E514C3941E40EFD2A80201367419
:10006300092512F8C000E6FFC313D000F6E514C358
:100073009408400974092512F8E64480F6751400C3
:100083000513E513C3940840AC0512E512C39404A9
:1000930040A0E50CF4650B6005D2A8020136E50B20
:1000A300540FF50EE50BC4540FF50FE50ED3940969
:1000B3004004743780027430250EF50EE50FD39497
:1000C300094004743780027430250FF50FE50F548F
:1000D3000FC454F0FFE50E540F2FF51512016701FD
:1000E3000903011808011D13010416010E1801313B
:1000F30041012742012251012C52011355000001F5
:1001030034750800802B750801802675080280214C
:10011300750803801C75080480177508058012751F
:100123000806800D750807800875080880037508A0
:0301330009D2A846
:0B013600D0D0D082D083D0F0D0E032D7
:1001A700AD071FED600BE4FEEEC3940D50F20E8019
:0101B700F750
:0101B8002224
:1001B900E5089001E593F580C2A37F051201A7D256
:0201C900A3226F
:10018D00EF1FAA0670011E4A600FE4FDEDC394FA3D
:09019D0050EE000000000D80F39B
:0101A6002236
:0D01CB007F587E1FEF1F70011EEF4E70F772
:0101D8002204
:10016700D083D082F8E4937012740193700DA3A327
:1001770093F8740193F5828883E47374029368603B
:06018700EFA3A3A380DF3B
:00000001FF
