:030000000200E219
:0C00E200787FE4F6D8FD75812002000351
:10005D00202020202051584D4355202020202000C5
:10006D00485454503A2F2F51584D43552E434F4D10
:01007D000082
:1000B600E4FDEDC39FEE6480F87480985009E4FC7B
:0700C6000CBCFDFC0D80EBFA
:0100CD002210
:1000CE00C287D286D28500000000E5A0339200C21E
:0300DE0085A200F8
:0100E10022FC
:10007E001200CE40FBC287C286C28500008FA00050
:0C008E00000000D28500000000C28522A6
:0700EE00EF4480FF02007ED9
:10009A001200CE40FBD287C286C28500008FA00024
:0C00AA00000000D28500000000C285228A
:100037007F3812007E7F017E001200B67F0C12000F
:100047007E7F011200B67F0612007E7F011200B686
:0600570012007E0200B65B
:100003001200377F0A7E001200B6E4FF1200EEEE04
:1000130090005D93FF600612009A0E80F27F4012FB
:1000230000EEE4FEEE90006D93FF600612009A0E60
:0400330080F280FED9
:00000001FF
