:0300000002009368
:0C009300787FE4F6D8FD7581200200DAC9
:0801E400010900010800C180BF
:0E01CB00759850438920758DFDD28ED29922F1
:0B01D900EF1FAC0670011E4C70F622F8
:100170007F507EC31201897F507EC31201897F5058
:090180007EC31201897F507EC389
:0E0189007E007F7CEF1F70011EEF4E70F7228C
:10014800E4FDD2B77F08FE1201D9C2B77F507E0006
:100158001201D9D2B77F057E001201D9A2B7E433C4
:08016800FD7F147E000201D9A5
:10011F00E4FB7D08D2B77F017E001201D9C2B7EB95
:10012F00C313FBD2B730B7034303807F047E0012A3
:08013F0001D9DDE0AF037E00F1
:010147002295
:02019700AD07B2
:100199007B08C2B7ED1392B77F057E001201D9D251
:0E01A900B7EDC313FDDBEB7F047E000201D92E
:100003001201487FCC1201977F441201977F7D7EB6
:10001300001201D91201487FCC1201977FBE120151
:100023009712011F8F0912011F8F08E508D3947FD0
:10003300400B6309FFE508F404F508C200E509C4B1
:10004300540FFD7C00E50875F010A4AEF02DF50CFF
:10005300EC3EF50BE509540FFD75F00AA4FFE5F03E
:10006300C4F854F0C8EFC4540F48F50EED75F064AE
:10007300A4FFE5F0C4F854F0C8EFC4540F4875F07A
:100083000A8485F00FE50E75F00AA4250FF50A2200
:1001B7001201CB120003850C99120170850A99125E
:0401C700017080EF54
:10009F000201B7E493A3F8E493A34003F68001F2BF
:1000AF0008DFF48029E493A3F85407240CC8C33362
:1000BF00C4540F4420C8834004F456800146F6DF31
:1000CF00E4800B01020408102040809001E4E47EDC
:1000DF00019360BCA3FF543F30E509541FFEE49326
:1000EF00A360010ECF54C025E060A840B8E493A3ED
:1000FF00FAE493A3F8E493A3C8C582C8CAC583CA18
:10010F00F0A3C8C582C8CAC583CADFE9DEE780BECF
:0101EC000012
:00000001FF
