:10000300687474703A2F2F747473656D622E746103
:100013006F62616F2E636F6D2F0049204C4F564501
:10002300204D59204A4F422000333236B5E7D7D30B
:10003300B9A4D7F7CAD200D7A8D2B5BCBCCAF5D6E3
:10004300A7B3D6C2DBCCB300D7A8D2B5BFAAB7A299
:10005300B0E5B9A4BFD8B0E5003132333435363713
:10006300383930006162636465666768696A6B6C1E
:100073006D6E6F707169737475767778797A0060D5
:100083002C2E2F3C3E273B3A5B5D7B7D7C3F292812
:100093002D3D2B2A265E252400CED200B0AE00B51E
:1000A300A500C6AC00BBFA00330032003600B5E74A
:1000B30000D7D30000BBB600D3AD00C4E300A3A1B7
:1000C300000000000000000000000000000000002D
:1000D300000000000000000000000000000000001D
:1000E300000000000000000000000000000000000D
:1000F30000000000000000000000000000000000FD
:1002D300000000001010101010100010100000009B
:1002E300000000002424240000000000000000009F
:1002F3000000000024247E2424247E242400000003
:1003030000000000107C90907C12127C1000000012
:10031300000000000062640810204C8C0000000004
:100323000000000000182420508A844A3000000096
:10033300000000001010200000000000000000007A
:10034300000000081020202020202020100800009A
:100353000000002010080808080808081020000002
:100363000000000000001054383854100000000052
:1003730000000000000010107C10100000000000BE
:10038300000000000000000000000010102000002A
:1003930000000000000000007C00000000000000DE
:1003A300000000000000000000000000100000003A
:1003B30000000000000002040810204000000000BC
:1003C300000000003844444C5464444438000000A6
:1003D3000000000010301010101010103800000042
:1003E3000000000038440404081020407C00000092
:1003F300000000007C0408103804040478000000A6
:100403000000000008182848487C0808080000007D
:10041300000000007C4040407804040478000000A1
:10042300000000003C404040784444443800000051
:10043300000000007C04040810202020200000009D
:100443000000000038444444384444443800000069
:1004530000000000384444443C0404043800000015
:100463000000000000000000100000100000000069
:100473000000000000000000001000101020000029
:100483000000000000000408102010080400000011
:1004930000000000000000007C007C000000000061
:1004A30000000000000020100804081020000000D5
:1004B300000000384444040810100010100000002D
:1004C30000000000000038445C545C403C00000025
:1004D30000000018244242427E4242424200000091
:1004E3000000007C4242427C424242427C000000C7
:1004F3000000003C42404040404040423C0000007D
:100503000000007C42424242424242427C000000E0
:100513000000007E40404078404040407E000000A4
:100523000000007E404040784040404040000000D2
:100533000000003C4240405E424242423C00000018
:10054300000000424242427E4242424242000000D8
:1005530000000038101010101010101038000000A8
:100563000000001C080808080808084830000000BC
:10057300000000424448506060504844420000007C
:100583000000004040404040404040407E000000AA
:100593000000008282C6C6AAAA929282820000004C
:1005A30000000042626252524A4A4646420000003C
:1005B3000000003C42424242424242423C000000B0
:1005C3000000007C424242427C4040404000000028
:1005D3000000003C424242424242424A3C0E00007A
:1005E3000000007C424242427C50484442000000EA
:1005F3000000003C4240403C020202423C0000003A
:100603000000007C101010101010101010000000DB
:100613000000004242424242424242423C00000049
:10062300000000444444442828281010100000000F
:10063300000000828282825454542828280000003B
:1006430000000042422418181824244242000000EB
:1006530000000044444444282810101010000000F7
:100663000000007E02020408102040407E000000CB
:100673000000003820202020202020203800000007
:1006830000000000000000402010080402000000E9
:100693000000001C04040404040404041C000000FF
:1006A30000000000001028440000000000000000CB
:1006B30000000000000000000000000000FF000038
:1006C30000000000101008000000000000000000FF
:1006D30000000000000078043C4444443A00000059
:1006E3000000004040405C62424242625C00000005
:1006F3000000000000003C42404040423C0000003B
:100703000000000202023A46424242463A0000001A
:100713000000000000003C42427E40423C000000DA
:100723000000000E1010103C1010101010000000FC
:100733000000000000003E424242423E02023C00F2
:100743000000004040405C624242424242000000DE
:100753000000000008000808080808080800000056
:1007630000000000040004040404040404443800EA
:1007730000000040404042444850684442000000AA
:1007830000000010101010101010101010000000C6
:10079300000000000000EC929292929292000000FE
:1007A3000000000000007C4242424242420000003E
:1007B3000000000000003C42424242423C00000074
:1007C3000000000000005C62424242625C40400064
:1007D3000000000000003A46424242463A0202004C
:1007E3000000000000005C62404040404000000008
:1007F3000000000000003C42403C02423C0000007C
:100803000000000020207820202020221C0000006F
:100813000000000000004242424242423E0000000B
:10082300000000000000424242424224180000003F
:100833000000000000008282829292AA440000001D
:10084300000000000000424224182442420000003D
:1008530000000000000042424242423E02023C00CD
:100863000000000000007E02041820407E0000000B
:100873000000000810101020402010101008000085
:100883000000101010101010101010101010101085
:1008930000000020101010080408101010200000A1
:1008A3000000000000000022548800000000000047
:1008B3000000000000000000000000000000000035
:1008C30000B1B1000440044004400444044E7C5889
:1008D30004600440044004400C403442E442444277
:1008E300043E0000BEA900020001087FFC000000D6
:1008F300001FF0101010101FF001000930191831FB
:100903000C410805000200D1E3007FFC400044A035
:10091300449049104BFC5B206DFC4920492049FC65
:100923004920492049FE89000000C1E800004040F9
:100933004023F830402FFE01B02308248429F8C354
:10094300104CA0404040B0430E1C040000B5E7002B
:100953000100010001003FF8210821083FF82108A8
:10096300210821083FF821080102010200FE0000CE
:10097300D7D30000003FF0002000400080010001B9
:10098300000104FFFE010001000100010001000558
:10099300000200D3D000010001007FFE020004002A
:1009A3000FF0181028104FF0881008100FF00810DF
:1009B300089008700820CFDE000000FBF89208932F
:1009C300F8A208A20893F88A808A48AA5092208243
:1009D300208210828E83048200B9AB0000000440A1
:1009E30006400440082008101018220E4304020099
:1009F3000420081011F83F1810100000CBBE0000AF
:100A0300003FFC000400047FE4000400043FC42012
:100A13004420443FC420442004001400080000D7AD
:100A2300A800010001003FF802000200FFFE0400DD
:100A330008200FF0002000400280010000800040E9
:100A43000000D2B50004400440044004444446245A
:100A53004C244814501C501460044004400444FFC8
:100A6300FE00000000BFAA0000007FFE0420042057
:100A730004200420FFFE0420042004200820082072
:100A83001020202040200000B7A2000200224022B4
:100A93003022107FFE2400040007E00C200A200A05
:100AA30020114020804160861C1808B0E500101C0E
:100AB30011E011001100FD0011FC3984354855483F
:100AC3005230921012301448108E11040000B9A451
:100AD3000000003FFC0100010001000100010001D2
:100AE3000001000100010001000100FFFE00000001
:100AF30000BFD800100010201010FDFE110410508C
:100B0300148C19043000D1FC102010201020102068
:100B130053FE2000C9E800400021F03110211001EC
:100B2300100110E20E25F8210821082090209028BA
:100B3300603090230E0C04B1B80008000FF00820B9
:100B430014202240418002400C30301EDFF411108B
:100B53001FF0111011101FF01010BCBC001020105A
:100B6300201020FDFE1020142019FC3108D088101D
:100B730090106010601090110E56042000CAF5000A
:100B83000100012001100100FFFE01000380054068
:100B9300052009101118210EC104010001000000F5
:100BA300D6A7000100010001007FFE010001001F24
:100BB300F80810042004200240018002400C307029
:100BC3000E0004B3D6001040104013FCFC4010404C
:100BD30017FE1410181037FED010111010D01090FB
:100BE300101050502020C2DB004040204030A02095
:100BF3009001080206E5042110213821C0210025B7
:100C0300002904310420FC0000CCB300000011FCD7
:100C1300100010001000FC0013FE10401060108044
:100C23001C883104C27E07C602040000CED2000035
:100C3300000000000000000009C000007DF8000370
:100C4300FDCE003FC1C70000C1C70000C1C3000003
:100C5300C1C30000C1C0C03FFFFFE020C0C000000F
:100C6300C0C20000C0C78000C2C78000DECF000042
:100C7300F8CE000FE0FC007FC0F8003CC0780030E5
:100C8300C0702000C1F82000C3B82000C71E200098
:100C9300DC0F600FF007E003C003F0018000700079
:100CA300000000000000000000000000000000B091
:100CB300AE00000000000000030000003F80003F82
:100CC300FF800FFF060001860F0000C30E0000E344
:100CD3009C0008639800084110C00FFFFFE018183C
:100CE30001C0381C0180381C03000FFFFF000FFFF9
:100CF300FF0000380000003FFC00003FFE00007CC6
:100D03001C00006C380000C6700001C3E0000381C2
:100D1300C0000707FC000C1E3FF038F80FE003C0CB
:100D230000C0000000000000000000000000000000
:100D33000000B5A500000000000080300000E0388E
:100D4300000070380000386000003860000610C6EC
:100D53000007FFFF00070606000706060007060652
:100D63000007FFFE0007FFFE000706060007060652
:100D7300000706060007FFFE00070606000606003A
:100D830000000600E07FFFFFF020060000000600E1
:100D93000000060000000600000006000000060038
:100DA300000006000000000000000000000000003A
:100DB3000000000000C6AC00000000000000C000FE
:100DC3000100F00001C0E00001C0E0000180E0008C
:100DD3000180E0000180E0000180E0800180E1C04B
:100DE30001FFFFE00180000001800000018000009E
:100DF3000180300001FFF80001FFF800018030009E
:100E0300038030000380300003003000070030000F
:100E1300060030000E0030000C00300018003000D7
:100E23003000380020003000000000000000000007
:100E33000000000000000000BBFA000000000003F7
:100E430000000003800000030606000307FF000301
:100E5300070F0003070E0003370E007FF70E003F56
:100E6300FF0E0003070E0007070E0007870E00079B
:100E7300E70E000F770E000F3F0E000F170E001B3B
:100E8300070E001B060E0033060E0033060E20630A
:100E93000E0E60430C0E60031C0E6003180E7003ED
:100EA3003007F0036007E00340000000000000008B
:100EB3000000000000000000000000B1B1000000CD
:100EC30000000000000000000000001C30000018BB
:100ED30030000018300000183000001830000018EF
:100EE30030000018301000183038001830701FF828
:100EF30030C00018330000183C0000183000001800
:100F030030000018300000183000001830000018BE
:100F13003000001830080018300800F830080718AF
:100F230030083C183008181830080018301C001816
:100F33003FFC00180FF00000000000000000BEA9F5
:100F43000000000000000000000002000000038019
:100F530000000180000001C000000080383FFFFF57
:100F6300FC00000000000000000000010000C003BE
:100F73008000FFFD8000C0010000C0010000C0012F
:100F83000000C0010000C0010000FFFF0000C1819C
:100F930000008180000001800000618400007183F3
:100FA3000000C18180018181E0030180E0060180AE
:100FB30070083F80203007802000030000000000FD
:100FC30000D1E3000000000000000000000000006A
:100FD3000200001803FFFFFC02084000020C64003B
:100FE30002187700021863000210C1000230C01813
:100FF3000220FFFC027182000271820002B28200B1
:10100300023282200234FFF0023882000230820072
:101013000630820006308220063082700630FF8060
:1010230004308200043082000830820008308208D5
:101033001030FFFC10308000203080004020000082
:1010430000000000C1E800000000000000000000F4
:101053000020000000300020003000100030401C51
:101063000030E00E0FFF0006403000048030000027
:101073008030100080303800FFCFC0010302000130
:101083000601C0030C40700218E0380231C0180694
:101093004183000C837F803C0703000C0C86000C0B
:1010A30010C4000C204C000C4038001C8030001C85
:1010B300007C000C018E00000703E0003801FC01F6
:1010C300C0003800000000BFC600000000000000A0
:1010D3000000000800E0003C00E001FC00C03FE02D
:1010E30000C030C060C000C070C000C038C000C0C5
:1010F30038C000C418C03FFE00C03FFF00C001C09D
:1011030080C001C0E0C001E070C003F870C003DE1E
:1011130030C807CE30DE0ECE00FE0CC41FE01CC369
:10112300FCC038C780C030C000C060C000C000C071
:1011330000C000C000C000C000C000C000C000C0AC
:1011430000C000C000C000000080BCBC0000000064
:10115300000000000001C00C0001C00E0001800C63
:101163000001800C0001800C0001800C0001980C30
:10117300183FFFFFFC21800C0001800C0001800C54
:101183000001800C00018C0C6001FBFFF003E08088
:10119300701F80C0E07F80C0E0398061C001806142
:1011A300C0018033800180338001801F0001801ED5
:1011B3000001801E0001807F803980F3E03F83C1FE
:1011C300FE078F007E037C003800000000BBB600E2
:1011D30000000000000000000000300000003800A4
:1011E30000003800000870003FFC70003FFC600006
:1011F300003860180038FFFC3038C03C1830C8385D
:101203000C718E3006718C6003631E0003E31E00B5
:1012130001C61E0001E01E0001E01A0003F01B00DE
:1012230003783B0007383300063C73800C1C618055
:101233000C1CE1C0180DC0E0300180F0600700789D
:10124300000E003E0038001E006000100000000089
:10125300D3AD0000000000000000000C0000000EF1
:101263000070000700F800039BE010039F0FFC03CE
:101273008C0C38000C0C38000C0C38000C0C3803A8
:101283000C0C387F8C0C38238C0C38030C0C380373
:101293000C0C38030C0C38030C2C38030DEC3803FE
:1012A3001F8C38031F0DF8030E0CF003080C700796
:1012B300000C001F800C003CE00C0078780000302C
:1012C3003FFFFE000FFFFC0000FFF80000000000DE
:1012D300000000C4E3000000000000000000006004
:1012E300C0000078F00000F0F00000E1E00001C170
:1012F300C00001C18010018380380383FFFC038792
:10130300003807C61C70078C1C600D8C1C401D9890
:101313001C0019931C003183DD8061839CC04183D1
:101323009C6001871C7001871C38018E1C3C018C5A
:101333001C1C039C1C1C03981C1C03B01C0C03A04A
:101343001C0803A13C000381FC0003807800030018
:10135300300000000000A3A1000000000000000016
:10136300000000000000000000000000000040003A
:101373000000F0000000F0000000F0000000F000AA
:101383000000F0000000F0000000E0000000E000BA
:101393000000E0000000E0000000600000006000CA
:1013A300000060000000600000004000000000003A
:1013B3000000E0000001F0000001F0000001F00077
:1013C3000000E0000000000000000000000000003A
:0913D30000000000000000000011
:1013DC00D2847F197E00121F14C2837F967E001266
:1013EC001F14D2837F197E00121F14121656E4FFAD
:1013FC00FE121EC77BFF7A007903750FF87510007B
:10140C0075110075121F7D287F02121C9D7BFF7ABF
:10141C0000791D750F0575101F7511FF7512E07D94
:10142C003C121C9B7BFF7A00792C750FF875101FF2
:10143C007511077512E07D50121C9B7BFF7A0079A9
:10144C003A750F077510E07511F87512007D64126E
:10145C001C9B7BFF7A00794B750FF875100075118A
:10146C00FF7512E07D78121C9B7BFF7A00795C750E
:10147C000FF87510007511FF7512E07D8C121C9B16
:10148C007BFF7A007967750FF87510007511FF7581
:10149C0012E07DA07C007F147E00121CA17BFF7AE1
:1014AC00007982750FF87510007511FF7512E07DCB
:1014BC00B47C007F147E00121CA17BFF7A00799C07
:1014CC00750F0075101F7511FF7512E07F1412193E
:1014DC00F87BFF7A00799F750F0075101F7511F856
:1014EC007512007F3C1219F87BFF7A0079A2750FF8
:1014FC000075101F7511F875121F7DC87C007F6474
:10150C007E001219FE7BFF7A0079A5750F0075100D
:10151C001F7511077512E07DC87C007F8C7E001250
:10152C0019FE7BFF7A0079A8750F0075101F7511D5
:10153C007F7512FF7DC87C007FB47E001219FE7B84
:10154C00FF7A0079AB750F0075101FE4F511F512D9
:10155C007DF0FC7F14FE1219FE7BFF7A0079AD75CD
:10156C000F0075101FE4F511F5127DF0FC7F3CFEA9
:10157C001219FE7BFF7A0079AF750F0075101FE40E
:10158C00F511F5127DF0FC7F64FE1219FE7BFF7ADB
:10159C000079B1750F0075101FE4F511F5127DF08F
:1015AC00FC7F8CFE1219FE7BFF7A0079B4750F005C
:1015BC0075101FE4F511F5127DF0FC7FB4FE1219C5
:1015CC00FE7BFF7A0079B7750F0075101FE4F511DB
:1015DC00F5127D187C017F14FE1219FE7BFF7A0038
:1015EC0079B8750F0075101FE4F511F5127D187C94
:1015FC00017F3CFE1219FE7BFF7A0079BB750F0050
:10160C0075101FE4F511F5127D187C017F64FE1234
:10161C0019FE7BFF7A0079BE750F0075101FE4F57B
:10162C0011F5127D187C017F8CFE1219FE7BFF7A5E
:10163C000079C1750F0075101FE4F511F5127D18B6
:0A164C007C017FB4FE1219FE80FE3F
:041EC7008E088F09E9
:101ECB00753101753240E4FBFA7DF0FCFFFE121E0A
:101EDB002BE4F50AF50BE4F50CF50DAF09AE081282
:101EEB001F92050DE50D7002050CC394F0E50C94E3
:101EFB000040E8050BE50B7002050AC39445E50AA3
:041F0B00940140D22B
:011F0F0022AF
:061D2A008B218D828C83E9
:0B1D3000EF2407121E18E4F526F5272B
:101D3B00AF21EF3395E0FEEFC4F8540FC868FFEE08
:101D4B00C454F048FEE5272FFFE5263EFE74C42F52
:101D5B00F58274003EF583E493F52AE4F528F52922
:101D6B00E52A30E706AF23AE228004AF25AE24125E
:101D7B001F92E52A25E0F52A0529E5297002052899
:091D8B00C39408E528940040D738
:101D94000527E52770020526C39410E52694004024
:011DA40096A8
:011DA500221B
:0F1F7700851922851A23851B24851C25021D2A06
:0A1AEC008B188A19891A8D828C83E9
:101AF600EF240F121E18E4F523F524AB18AA19A932
:101B06001A121DA6FF9008C475F023E524121E0CB8
:101B1600E52375F023A42583F583E4936F60030220
:101B26001BB9900001121DBFFF9008C575F023E593
:101B360024121E0CE52375F023A42583F583E49374
:071B46006F7070F51FF52020
:101B4D009008C775F023E524121E0CE52375F023CC
:101B5D00A42583F583E5822520F582E583351FF5E0
:101B6D0083E493752500F526E4F521F522E526306D
:101B7D00E706AF1CAE1B8004AF1EAE1D121F92E513
:101B8D002625E0F526E52533F5250522E52270020B
:0B1B9D000521C39408E521940040D20C
:101BA8000520E5207002051FC39420E51F9400401E
:101BB800940524E52470020523C39440E52394008A
:051BC8005003021B01A7
:011BCD0022F5
:0619F8007DC87C007E00AA
:0A19FE008B0C8A0D890E8D828C83FC
:101A0800EF241FFDE43EFCAB82AA83E582241F126B
:101A18001E24E4F517F518AB0CAA0DA90E121DA685
:101A2800FF900C2F75F083E518121E0CE51775F062
:101A380083A42583F583E4936F6003021AD790008B
:101A480001121DBFFF900C3075F083E518121E0CB3
:101A5800E51775F083A42583F583E4936F7070F51B
:031A680013F5145F
:101A6B00900C3275F083E518121E0CE51775F08398
:101A7B00A42583F583E5822514F582E5833513F5DB
:101A8B0083E493751900F51AE4F515F516E51A308C
:101A9B00E706AF10AE0F8004AF12AE11121F92E526
:101AAB001A25E0F51AE51933F5190516E516700236
:0B1ABB000515C39408E515940040D207
:101AC6000514E51470020513C39480E513940040D1
:101AD600940518E51870020517C3940FE5179400CE
:051AE6005003021A1F6D
:011AEB0022D8
:061C9B007F287C007E00A2
:0E1CA1008E088F098C0A8D0B8B0C8A0D890E14
:101CAF00E4F513AB0CAA0DA90E121DA6606CC3941C
:101CBF0080E51375F008502FA42509FFE50835F0CE
:101CCF00FE121DA6FB850F1985101A85111B851293
:101CDF001CAD0BAC0A121F777401250EF50EE435FF
:101CEF000DF50D051380BCA42509FFE50835F0FEA1
:101CFF00AB0CAA0DA90E850F1B85101C85111D8518
:101D0F00121EAD0BAC0A121AEC7402250EF50EE47E
:0A1D1F00350DF50D0513051380893D
:011D29002297
:0C1E74008E358F368C378D388A398B3ACA
:101E8000853B31853C32121E2B85393F853A40D344
:101E9000E540953CE53F953B502C853541853642E4
:101EA000D3E5429538E54195375011AF3EAE3D122E
:101EB0001F920542E54270E8054180E40540E54097
:061EC00070CD053F80C952
:011EC60022F9
:10182C00753101753240E4FBFA7DF0FCFFFE121EAF
:10183C002BE4F54CF54DE4F54AF54BE4FD7FF8123D
:10184C001F51054BE54B7002054AC39428E54A64C9
:10185C0080948040E6054DE54D7002054CC394F034
:10186C00E54C6480948040CEE4F54CF54D754A000F
:10187C00754B287DE07F07121F51054BE54B70021D
:10188C00054AC39450E54A6480948040E6054DE5D2
:10189C004D7002054CC394F0E54C6480948040CDAF
:1018AC00E4F54CF54D754A00754B507D1FE4FF1265
:1018BC001F51054BE54B7002054AC39478E54A6409
:1018CC0080948040E6054DE54D7002054CC394F0C4
:1018DC00E54C6480948040CDE4F54CF54D754A00A0
:1018EC00754B787DE07FFF121F51054BE54B700265
:1018FC00054AC394A0E54A6480948040E6054DE512
:10190C004D7002054CC394F0E54C6480948040CD3E
:10191C00E4F54CF54D754A00754BA07D1F7FF81210
:10192C001F51054BE54B7002054AC394C8E54A6448
:10193C0080948040E6054DE54D7002054CC394F053
:10194C00E54C6480948040CDE4F54CF54D754A002F
:10195C00754BC87DFF7F07121F51054BE54B70027D
:10196C00054AC394F0E54A6480948040E6054DE551
:10197C004D7002054CC394F0E54C6480948040CDCE
:10198C00E4F54CF54D754A00754BF0121F4D054BA7
:10199C00E54B7002054AC39418E54A648094814073
:1019AC00EA054DE54D7002054CC394F0E54C64809E
:1019BC00948040D1E4F54CF54D754A01754B18E413
:1019CC00FDFF121F51054BE54B7002054AC39440B5
:1019DC00E54A6480948140E7054DE54D7002054C65
:0B19EC00C394F0E54C6480948040CE72
:0119F70022CD
:101BCE00E4F549F548F547F546753101753240FBA8
:101BDE00FA7DF0FCFFFE121E2BE4F544F545E4F50C
:101BEE0043121F4D0543E543C394F040F40545E50C
:101BFE004570020544C3944BE544940040E0E4F57F
:101C0E0044F545E4F543121F4D0543E543C39437B0
:101C1E0040F4E4F5437846121DEC74002FF58274FF
:101C2E00003EF583E493FFC007121DEC74002FF500
:101C3E008274003EF583E493FDD007121F510543D5
:101C4E00E543C3948240CEE4F543121F4D0543E5B0
:101C5E0043C3943740F40545E54570020544C394EB
:101C6E00AAE5449400409CE4F544F545E4F543129E
:101C7E001F4D0543E543C394F040F40545E545701B
:0C1C8E00020544C3944BE544940040E080
:011C9A002227
:031F3400E4FDFCCD
:061F3700AB05AA04AD0792
:101F3D008A338B34E4FF121F64AD34AF33021F516B
:041F9200AD07AC06E5
:051F9600AF04021F5121
:101F6400C284C2878FA0C286D2868DA0C286D28642
:031F7400D28422F2
:041F4D007DFF7FFF96
:101F5100C284D2878FA0C286D2868DA0C286D28645
:031F6100D2842205
:041F10007F327E009E
:101F1400E4FDFCC3ED9FEC9E5015E4FBFA0BBB0003
:0F1F2400010ABA01F8BB04F50DBD00010C80E401
:011F3300228B
:101656007F967E00121F147D007C807FE5121F3767
:101666007D017C00E4FF121F377D007C017F0112A3
:101676001F377D007C077F02121F377D307C007F7D
:1016860003121F377F04121F347402FDFC7F0812F9
:101696001F377F09121F34E4FDFC7F0A121F37E44F
:1016A600FDFC7F0C121F37E4FDFC7F0D121F37E493
:1016B600FDFC7F0F121F37E4FDFC7F10121F377DE4
:1016C600077C007F11121F37E4FDFC7F12121F37C3
:1016D600E4FDFC7F13121F377FC87E00121F147DA6
:1016E600B07C177F10121F377D377C007F11121FC9
:1016F60037121F107D3E7C017F12121F37121F10FA
:101706007D007C1F7F13121F377D137C007F2912FB
:101716001F37121F10E4FDFC7F20121F37E4FDFC6B
:101726007F21121F37E4FDFC7F30121F377404FD42
:10173600FC7F31121F377404FDFC7F32121F377D88
:10174600047C007F35121F377404FDFC7F36121FA0
:10175600377404FDFC7F37121F377404FDFC7F3895
:10176600121F377407FDFC7F39121F377D007C0579
:101776007F3C121F377D077C067F3D121F37E4FD35
:10178600FC7F50121F377DEF7C007F51121F37E41C
:10179600FDFC7F52121F377D3F7C017F53121F379E
:1017A6007D007C277F60121F377D017C007F6112E0
:1017B6001F37E4FDFC7F6A121F37E4FDFC7F8012B1
:1017C6001F37E4FDFC7F81121F37E4FDFC7F821288
:1017D6001F37E4FDFC7F83121F37E4FDFC7F841274
:1017E6001F37E4FDFC7F85121F377D107C007F903C
:1017F600121F37E4FDFC7F92121F377D037C007FAA
:1018060093121F377D107C017F95121F37E4FDFC74
:101816007F97121F37E4FDFC7F98121F377D737C7C
:06182600017F07021F37DD
:101E1800FDE43EFCAB82AA83E582240FF532E4356B
:031E280083F5310E
:101E2B008E2B8F2C8C2D8D2E8A2F8B30AD2CAC2B9B
:101E3B007F50121F37AD2EAC2D7F51121F37AD3097
:101E4B00AC2F7F52121F37AD32AC317F53121F377D
:101E5B00AD2CAC2B7F20121F37AD30AC2F7F211256
:091E6B001F377D22E4FF021F6411
:03000000021F8656
:0C1F8600787FE4F6D8FD75814D0213DC75
:101DA600BB010689828A83E0225002E722BBFE023B
:091DB600E32289828A83E493226E
:101DBF00BB010CE58229F582E5833AF583E02250D9
:101DCF0006E92582F8E622BBFE06E92582F8E22223
:0D1DDF00E58229F582E5833AF583E493223D
:101DEC007401FF3395E0FEFDFC080808E6CF2FF6E2
:101DFC0018E6CE3EF618E6CD3DF618E6CC3CF622BB
:0C1E0C00A42582F582E5F03583F58322E1
:00000001FF
