:1006E0002D20002B20000000000000207869616EA2
:0C06F0007A616977656E64753A2020001D
:040774007FE6DFFE3F
:01077800225E
:0207790000225C
:1006C200D3EF9400EE940040147D647C00ED1D7025
:0D06D200011CED4C70F7EF1F70E61E80E379
:0106DF0022F8
:10072800C2878FA0D285120779C2857F017E000219
:0207380006C2F7
:10073A00D2878FA0D285120779C2857F017E0002F7
:02074A0006C2E5
:1006FC00C2867F381207287F0C1207287F06120744
:06070C00287F010207280E
:080631008B3B8A3C893D8D3EA4
:10063900E4F53FE53FC3953E5017AB3BAA3CA93DC6
:10064900853F827583001203B6FF12073A053F8082
:01065900E2BE
:01065A00227D
:1006A300C2B77F647E00EF1F70011EEF4E70F7D25A
:0E06B300B77E007F04EF1F70011EEF4E70F740
:0106C1002216
:1007120020B7FDA2B7B340FB7F047E00EF1F70013C
:050722001EEF4E70F710
:0107270022AF
:10065B00C2B70FBF0000D2B70FBF00000FBF000023
:10066B00A2B792007E007F08EF1F70011EEF4E7045
:03067B00F7A200E3
:01067E002259
:10067F00E4FDFBFA12065BE433FFC43333335480DB
:10068F00FEEDC3134EFD0BBB00010AEB64084A706D
:03069F00E3AF05C1
:0106A2002235
:0F05DA001206A31207127F017E001206C27FCC09
:1005E900E4FEEF139200EFC313FF30001BC2B70BF9
:1005F900BB00000BBB0000D2B77A007B08EB1B7075
:10060900011AEB4A70F7801BC2B77A007B08EB1B13
:1006190070011AEB4A70F7D2B70BBB00010A0BBB8A
:0706290000010A0EBE08BB30
:0106300022A7
:080764001205DA7F440205E9E9
:08076C001205DA7FBE0205E967
:1005790012076C12067FA90712067FEFFEE9FF8EAC
:10058900348F35AC34AD35EC120206E4FBFA7980D0
:10059900783D1200FB8F398E388D378C36E4FFFE9B
:1005A9007DC87C42AB39AA38A937A8361200FBD3DB
:1005B900E5359400E53464809480E4FBFAF940045D
:1005C900783F800278BF12000A12023F8E348F35BD
:0105D90022FF
:040446008E348F352C
:10044A0078367C007D007BFF7A0679E67E007F05A0
:10045A00120390AF35AE34120758AB07AA067C27B1
:10046A007D101203E38F367C277D10AF03AE021294
:10047A0003E37E037FE8CFCDCFCECCCE1203E38F4A
:10048A00377C037DE8AF03AE021203E37E007F648C
:10049A00CFCDCFCECCCE1203E38F387C007D64AFB4
:1004AA0003AE021203E37E007F0ACFCDCFCECCCEBD
:1004BA001203E38F39AE02AF037C007D0A1203E315
:1004CA008D3A7FC3120728C3E534648094807BFF8A
:1004DA0050067A0679E080047A0679E37D021206EC
:1004EA0031E53660062430FF12073A7B0174362B59
:1004FA00F8E62430FF12073ABB02057F2E12073AAC
:04050A000BBB05E939
:01050E0022CA
:10050F0078217C007D007BFF7A0679EB7E007F11DE
:10051F001203901207641206FC7F801207287B00DB
:10052F007A0079217D101206317FE87E031206C210
:10053F007FC01207281205798E328F33D3E533949B
:10054F00FCE5326480948840157EC8B2B6120774F9
:10055F00DEF97EC8B2B6120774120774DEF6AF3337
:0A056F00AE3212044612076480BF8A
:100003000202ABE86480F8E933E83360110460F07E
:10001300ED33EC337009E8FCE9FDEAFEEBFF220463
:1000230060DED3EB9FEA9EE99DE8C2E78CF0C2F75E
:1000330095F0400CE8CCF8E9CDF9EACEFAEBCFFB2A
:1000430012027685D0F05804700320D5B3E804700B
:10005300075002B2D50202B592D5EC0460F7E4CCA6
:10006300C0E0C398F8603B94186008400DD0E0FBF3
:1000730002028DE4FBFAC9FC8028E830E406E4C9F7
:10008300FBE4CAFCE830E305E4C9CACBFCE8540747
:100093006010F8C3E913F9EA13FAEB13FBEC13FC52
:1000A300D8F130F52FC3E49CFCEF9BFFEE9AFEEDF5
:1000B30099FDD0E0FBEF4E4D4C701222DB030202A0
:1000C300B2EC2CFCEF33FFEE33FEED33FDED30E706
:1000D300EB02028DEF2BFFEE3AFEED39FDD0E0FB94
:1000E30050130BBB00030202B5ED13FDEE13FEEF3D
:0800F30013FFEC13FC02028D67
:1000FB00EC4D6011E8497017ED33EC3304600DE4FF
:10010B00FCFFFEFD22E933E8330470F80202AB1268
:10011B00027658046009E4CC248150062850090269
:10012B0002B52840030202B2C0E0EB4A7044B9802A
:10013B0006D0E0FB0202A1EF4E701CBD8008EBFF66
:10014B00EAFEE9FD80EBE98DF0A4FEE5F00201E4A7
:10015B00E9CDF9EAFEEBFFEF89F0A4FCE5F0CE89DF
:10016B00F0A42EFFE435F0CD89F0A42DFEE435F09C
:10017B008067EF4E7005BD80D780C3EF8BF0A4ACCA
:10018B00F0EE8BF0A42CFCE435F0F8EF8AF0A42C05
:10019B00E5F038FCE433CB8DF0A42CFCE5F03BF818
:1001AB00EE8AF0A42CFCE5F038F8E433CF89F0A408
:1001BB002CFCE5F038CF3400CE89F0A42FFFE5F00E
:1001CB003EFEE433C98DF0A42EFEE5F039CD8AF066
:1001DB00A42FFFE5F03EFEE43DFD33D0E0FB5007DE
:1001EB000BBB000F0202B5EC2CFCEF33FFEE33FE22
:0601FB00ED33FD02028D50
:1002010075F020800E75F010800575F0087D007E78
:10021100007F003392D530D503120438EC334010FF
:10022100EF33FFEE33FEED33FDEC33FCD5F0ED2281
:0E023100E5F0247EA2D513CC92E7CDCEFF22BD
:10023F00EDD2E7CD33EC3392D524814006E4FFFEB7
:10024F00FDFC22FCE4CFCECDCC24E0501174FF8016
:10025F00EDC3CC13CCCD13CDCE13CECF13CF0470B3
:07026F00F030D5DE02043877
:10027600E9D2E7C933E833F892D5EDD2E7CD33ECCE
:0702860033FC5002B2D52247
:10028D00EC30E7100FBF000C0EBE00080DBD0004D2
:10029D000BEB6014A2D5EB13FCED92E7FD2274FF7E
:1002AD00FCFDFEFF22E480F8A2D574FF13FC7D80D7
:0302BD00E480EFEB
:0300000002074CA8
:0C074C00787FE4F6D8FD75813F02050FB0
:1002C000E709F608DFFA8046E709F208DFFA803E20
:1002D00088828C83E709F0A3DFFA8032E309F6080D
:1002E000DFFA8078E309F208DFFA807088828C8375
:1002F000E309F0A3DFFA806489828A83E0A3F60829
:10030000DFFA805889828A83E0A3F208DFFA804C02
:1003100080D280FA80C680D4806980F280338010D9
:1003200080A680EA809A80A880DA80E280CA803342
:1003300089828A83ECFAE493A3C8C582C8CCC583BA
:10034000CCF0A3C8C582C8CCC583CCDFE9DEE7808A
:100350000D89828A83E493A3F608DFF9ECFAA9F009
:10036000EDFB2289828A83ECFAE0A3C8C582C8CC5F
:10037000C583CCF0A3C8C582C8CCC583CCDFEADE78
:10038000E880DB89828A83E493A3F208DFF980CCDA
:1003900088F0EF60010E4E60C388F0ED2402B404D3
:1003A0000050B9F582EB2402B4040050AF2323457A
:0603B0008223900310738C
:1003B600BB010CE58229F582E5833AF583E02250FC
:1003C60006E92582F8E622BBFE06E92582F8E22246
:0D03D600E58229F582E5833AF583E4932260
:1003E300BC000BBE0029EF8DF084FFADF022E4CCFE
:1003F300F875F008EF2FFFEE33FEEC33FCEE9DECC7
:10040300984005FCEE9DFE0FD5F0E9E4CEFD22ED0C
:10041300F8F5F0EE8420D21CFEADF075F008EF2F56
:10042300FFED33FD4007985006D5F0F222C398FD47
:050433000FD5F0EA22E4
:0E043800C3E49FFFE49EFEE49DFDE49CFC22D5
:0C075800EE30E707C3E49FFFE49EFE22A2
:00000001FF
