:03000000020122D8
:0C012200787FE4F6D8FD758120020169A9
:10028300C0F9A4B0999282F88090FF407924301984
:060293001202780010FFCA
:0802AF00010900010800C180F3
:0A02A500EFD3940040031F80F722FE
:100249007C007D0AAF03AE021201AE74832FF582E2
:0902590074023EF583E493F58084
:040262007F7CDFFEC0
:010266002275
:10022800E4FED2B77F081202A5C2B77F501202A51A
:10023800D2B77F051202A5A2B7E433FE7F140202EB
:01024800A510
:10020300E4FD7E08D2B77F011202A5C2B7EDC31386
:10021300FDD2B730B7034305807F041202A5DEE4A5
:04022300AF057E00A5
:0102270022B4
:02026700AE07E0
:100269007D08C2B7EE1392B77F051202A5D2B7EE89
:0A027900C313FEDDED7F040202A5B1
:100094001202287FCC1202677F441202677F7D120E
:1000A40002A51202287FCC1202677FBE12026712D9
:1000B40002038F091202038F08E508D3947F400BD3
:1000C4006309FFE508F404F508C200E509C4540F08
:1000D400FD7C00E50875F010A4AEF02DF50CEC3EA7
:1000E400F50BE509540FFD75F00AA4FFE5F0C4F81B
:1000F40054F0C8EFC4540F48F50DED75F064A4FF37
:10010400E5F0C4F854F0C8EFC4540F4875F00A84FD
:0E01140085F00EE50D75F00AA4250EF50A2201
:10000300AB07AA0630004475A0FE1202497580FFB3
:1000130075A0FD7C007D0AAF03AE021201AE748EA3
:100023002DF58274023C12025C7580FF75A0FBE51E
:100033000D90028393F5801202627580FF75A0F71D
:10004300E50E93F5801202627580FF20004275A0D1
:10005300FE90028E12025E7580FF75A0FD120249AA
:100063007580FF75A0FBAE02AF037C007D0A120111
:10007300AE748E2DF58274023C12025C7580FF759E
:10008300A0F7E50D90028393F5801202627580FF5D
:01009300224A
:0C029900120094AF0CAE0B12000380F4B6
:10012E00020299E493A3F8E493A34003F68001F24C
:10013E0008DFF48029E493A3F85407240CC8C333D2
:10014E00C4540F4420C8834004F456800146F6DFA1
:10015E00E4800B01020408102040809002AFE47E80
:10016E00019360BCA3FF543F30E509541FFEE49396
:10017E00A360010ECF54C025E060A840B8E493A35D
:10018E00FAE493A3F8E493A3C8C582C8CAC583CA88
:10019E00F0A3C8C582C8CAC583CADFE9DEE780BE40
:0102B7000046
:1001AE00BC000BBE0029EF8DF084FFADF022E4CC35
:1001BE00F875F008EF2FFFEE33FEEC33FCEE9DECFE
:1001CE00984005FCEE9DFE0FD5F0E9E4CEFD22ED44
:1001DE00F8F5F0EE8420D21CFEADF075F008EF2F8E
:1001EE00FFED33FD4007985006D5F0F222C398FD7F
:0501FE000FD5F0EA221C
:00000001FF
