:03000000020003F8
:0C000300787FE4F6D8FD75810902002624
:10002600758920758DFD758BFDD28ED29CC29FD2AF
:100036009ED2AFD2ACE509B401FBE508B409005085
:100046004D90004EF82828730200910200690200C4
:100056006E02007302007802007D020082020087B1
:1000660002008C7590FE80267590FD80217590FBB0
:10007600801C7590F780177590EF80127590DF8061
:100086000D7590BF800875907F80037590FFD2AC88
:05009600E4F50980A063
:0300230002000FC9
:0B000F00C298859908C2AC7509013247
:00000001FF
