:030000000201EB0F
:0C01EB00787FE4F6D8FD7581200200DA70
:100172002052656420436F6E74726F6C20002020E1
:0F01820049522D434F44453A202D2D482020004F
:1001D900AD071FED600BE4FEEEC3940D50F20E80E7
:0101E900F71E
:0101EA0022F2
:10019100EF1FAA0670011E4A600FE4FDEDC394FA39
:0901A10050EE000000000D80F397
:0101AA002232
:1001C500C287D286D28500000000E5A0339201C225
:0301D50085A201FF
:0101D8002204
:09014D007F057E001201917F384C
:100156001201C540FBC287C286C28500008FA0007F
:0C016600000000D28500000000C28522CD
:1001AB001201C540FBD287C286C2858FA00000001A
:0A01BB0000D28500000000C285227A
:100118007F0F12014F12014D12014D7F057E001213
:1001280001917F0C1201567F057E001201917F0616
:100138001201561F7E001201917F011201567F05A0
:050148007E00020191A0
:0701F700EF4480FF020156F6
:1000DA00D2B27F0A7E00120191120118E4FF1201C6
:1000EA00F7E4FEEE90017293FF60061201AB0E80F8
:1000FA00F27F401201F7E4FEEE90018093FF600662
:0E010A001201AB0E80F275A88175880180FE8F
:03000300020006F2
:07000600C0E0C0D075D0007E
:10000D00751000C2A87F0F1201D930B205D2A80217
:10001D0000D520B2077F011201D980F6E4FC750FDF
:10002D000030B2077F011201D980F620B2077F019F
:10003D001201D980F630B2127F011201D90510E5F7
:10004D0010C3941E40EFD2A8807E74082CF8C00017
:10005D00E6FFC313D000F6E510C3940840087408FA
:10006D002CF8E64480F6751000050FE50FC39408D3
:10007D0040AF0CEC640470A6E50BF4650A6004D285
:10008D00A88045E50A540FF50DE50AC4540FF50E89
:10009D00E50DD394094004743780027430250DF5B5
:1000AD000DE50ED394094004743780027430250E8B
:1000BD00F50E7F4B1201F7AF0E1201AB7F4C120103
:0800CD00F7AF0D1201ABD2A840
:0500D500D0D0D0E032A4
:00000001FF
