:10027E003A0051582D4D435500323031340030374D
:10028E0000313200080F120F0A1F02020F090F0968
:0C029E000F0911000F09090F09090F00DA
:10024F00C2858FA07F057E00120260D2857F057E5A
:01025F00009E
:10026000D3EF9400EE940040147D727C00ED1D707D
:0D027000011CED4C70F7EF1F70E61E80E3DF
:01027D00225E
:0902FB00AD097F061202AE7FC7B7
:08030400C28712024FC28522DC
:08000300D28712024FC28522D0
:1002E900ED7006EF2480FB8004EF24C0FBAF03020E
:0202F9000304FC
:08021F007BFF7A02797E7D016C
:100227008B0E8A0F89101202E9AB0EAA0FA91012C2
:1002370002D0FF6012F5A012000374012510F5101B
:08024700E4350FF50F80E222FF
:0402AA00AD0AE4FFB6
:1002AE00ED75F00A84FBED75F00A84AAF0EF24C018
:1002BE00FF120304EB2430FF120003EA2430FF0286
:0202CE0000032B
:1001CF007F40120304E4F50DE50D90029293FF12A8
:1001DF000003050DE50DC3941840ED7F8412030451
:1001EF00E4FF1200037F871203047F011200037FD5
:1001FF008A1203047F021200037F0212021F7F057F
:10020F0012021F7BFF7A0279807D017F090202278C
:1000FA00C286750A16750B21750937E4F50CF508E1
:10010A007F381203047F0C1203047F061203047F54
:10011A00011203047BFF7A027987E4FDFF120227AA
:10012A007BFF7A02798CE4FD7F051202277BFF7A36
:10013A0002798FE4FD7F081202271202AAAD0B7F13
:10014A00031202AEAD097F061202AE1201CF758903
:0E015A0001758C3C758AB0D2AFD2A9D28C222E
:10000E00C2B220B53F12025C20B539050C30B5FDE9
:10001E00E50CB4010CC28C7FC71203047F0F1203D0
:10002E0004E50CB402057FC4120304E50CB4030509
:10003E007FC1120304E50CB4040AE4F50C7F0C1224
:10004E000304D28CE50C70030200F920B44D1202A9
:10005E005C20B44730B4FDE50CB4010D0509E5098B
:10006E00B43C03E4F5091202FBE50CB40216050BD1
:10007E00E50BB43C03E4F50BAD0B7F031202AE7F30
:10008E00C4120304E50CB40312050AE50AB41803FE
:10009E00E4F50A1202AA7FC112030420B34D120224
:1000AE005C20B34730B3FDE50CB4010D1509E5092D
:1000BE00B4FF0375093B1202FBE50CB40216150BD7
:1000CE00E50BB4FF03750B3BAD0B7F031202AE7F46
:1000DE00C4120304E50CB40312150AE50AB4FF03B7
:0C00EE00750A171202AA7FC11203042237
:0A031800C2861200FA12000E80FBEC
:03000B0002016887
:10016800C0E0C0F0C0D075D000C002C003C004C059
:1001780005C006C007758C3C758AB00508E508649B
:10018800147031F5080509E509643C7020F5090586
:100198000BE50BB43C10750B00050AE50AB418030F
:1001A800750A001202AAAD0B7F031202AEAD097FD9
:1001B800061202AED007D006D005D004D003D00274
:0701C800D0D0D0F0D0E032EE
:0300000002030CEC
:0C030C00787FE4F6D8FD7581100203181C
:1002D000BB010689828A83E0225002E722BBFE022C
:0902E000E32289828A83E493225F
:00000001FF
